{"abi":[{"type":"receive","stateMutability":"payable"},{"type":"function","name":"collect","inputs":[{"name":"token","type":"address","internalType":"address"}],"outputs":[],"stateMutability":"nonpayable"},{"type":"function","name":"vault","inputs":[],"outputs":[{"name":"vault_","type":"address","internalType":"address payable"}],"stateMutability":"view"},{"type":"event","name":"XcashCollected","inputs":[{"name":"token","type":"address","indexed":true,"internalType":"address"},{"name":"amount","type":"uint256","indexed":false,"internalType":"uint256"}],"anonymous":false},{"type":"event","name":"XcashNativeReceived","inputs":[{"name":"from","type":"address","indexed":true,"internalType":"address"},{"name":"amount","type":"uint256","indexed":false,"internalType":"uint256"}],"anonymous":false},{"type":"error","name":"ERC20TransferFailed","inputs":[]},{"type":"error","name":"ForwardFailed","inputs":[]},{"type":"error","name":"InvalidVaultArgs","inputs":[]},{"type":"error","name":"ZeroVault","inputs":[]}],"bytecode":{"object":"0x60808060405234601557610617908161001b8239f35b600080fdfe60806040526004361015610023575b361561001957600080fd5b6100216103a0565b005b60003560e01c806306ec16f81461009a5763fbfa77cf0361000e57346100955760007ffffffffffffffffffffffffffffffffffffffffffffffffffffffffffffffffc360112610095576020610077610288565b73ffffffffffffffffffffffffffffffffffffffff60405191168152f35b600080fd5b346100955760207ffffffffffffffffffffffffffffffffffffffffffffffffffffffffffffffffc3601126100955760043573ffffffffffffffffffffffffffffffffffffffff8116810361009557610021906101cc565b90601f7fffffffffffffffffffffffffffffffffffffffffffffffffffffffffffffffe0910116810190811067ffffffffffffffff82111761013357604052565b7f4e487b7100000000000000000000000000000000000000000000000000000000600052604160045260246000fd5b67ffffffffffffffff811161013357601f017fffffffffffffffffffffffffffffffffffffffffffffffffffffffffffffffe01660200190565b3d156101c7573d906101ad82610162565b916101bb60405193846100f2565b82523d6000602084013e565b606090565b73ffffffffffffffffffffffffffffffffffffffff811661027d575047801561027a57600080808093817f585fb2e91ab2ff6f2d3a7377e4ec52a02413c430a7df78e2be5cd94152b0cfb96020604051848152a273ffffffffffffffffffffffffffffffffffffffff61023d610288565b165af161024861019c565b501561025057565b7f096dc0e10000000000000000000000000000000000000000000000000000000060005260046000fd5b50565b61028690610420565b565b303b7fffffffffffffffffffffffffffffffffffffffffffffffffffffffffffffffd381019081116103715760146102d86102c283610162565b926102d060405194856100f2565b808452610162565b917fffffffffffffffffffffffffffffffffffffffffffffffffffffffffffffffe06020820193013684378051602d84303c5103610347575160601c90811561031d57565b7fc68fcf820000000000000000000000000000000000000000000000000000000060005260046000fd5b7f53e347a80000000000000000000000000000000000000000000000000000000060005260046000fd5b7f4e487b7100000000000000000000000000000000000000000000000000000000600052601160045260246000fd5b3415610286576040513481527f4487f6d368546870956d80d81e8c5b42062dda412d9d9f9bf2d5a1cd2dc1bb7960203392a2600080808047817f585fb2e91ab2ff6f2d3a7377e4ec52a02413c430a7df78e2be5cd94152b0cfb96020604051848152a273ffffffffffffffffffffffffffffffffffffffff61023d610288565b6040517f70a0823100000000000000000000000000000000000000000000000000000000815230600482015273ffffffffffffffffffffffffffffffffffffffff821691602082602481865afa9182156105cf576000926105e0575b5081156105db576000809161048f610288565b8260405173ffffffffffffffffffffffffffffffffffffffff60208201937fa9059cbb000000000000000000000000000000000000000000000000000000008552166024820152866044820152604481526104eb6064826100f2565b51925af16104f761019c565b5015610573576040517f70a08231000000000000000000000000000000000000000000000000000000008152306004820152602081602481865afa9081156105cf5760009161059d575b506105735760207f585fb2e91ab2ff6f2d3a7377e4ec52a02413c430a7df78e2be5cd94152b0cfb991604051908152a2565b7ff27f64e40000000000000000000000000000000000000000000000000000000060005260046000fd5b90506020813d6020116105c7575b816105b8602093836100f2565b81010312610095575138610541565b3d91506105ab565b6040513d6000823e3d90fd5b505050565b90916020823d60201161060f575b816105fb602093836100f2565b8101031261060c575051903861047c565b80fd5b3d91506105ee56","linkReferences":{}},"methodIdentifiers":{"collect(address)":"06ec16f8","vault()":"fbfa77cf"},"id":26}