{"abi":[{"type":"receive","stateMutability":"payable"},{"type":"function","name":"collect","inputs":[{"name":"token","type":"address","internalType":"address"}],"outputs":[],"stateMutability":"nonpayable"},{"type":"function","name":"vault","inputs":[],"outputs":[{"name":"vault_","type":"address","internalType":"address payable"}],"stateMutability":"view"},{"type":"event","name":"XcashCollected","inputs":[{"name":"token","type":"address","indexed":true,"internalType":"address"},{"name":"amount","type":"uint256","indexed":false,"internalType":"uint256"}],"anonymous":false},{"type":"event","name":"XcashNativeReceived","inputs":[{"name":"from","type":"address","indexed":true,"internalType":"address"},{"name":"amount","type":"uint256","indexed":false,"internalType":"uint256"}],"anonymous":false},{"type":"error","name":"ERC20TransferFailed","inputs":[]},{"type":"error","name":"ForwardFailed","inputs":[]},{"type":"error","name":"InvalidVaultArgs","inputs":[]},{"type":"error","name":"ZeroAmount","inputs":[]},{"type":"error","name":"ZeroVault","inputs":[]}],"bytecode":{"object":"0x608080604052346015576105ea908161001b8239f35b600080fdfe608060405260043610156100d5575b361561001957600080fd5b34156100ab576040513481527f4487f6d368546870956d80d81e8c5b42062dda412d9d9f9bf2d5a1cd2dc1bb7960203392a260008080803473ffffffffffffffffffffffffffffffffffffffff61006e6102db565b165af16100796102ab565b501561008157005b7f096dc0e10000000000000000000000000000000000000000000000000000000060005260046000fd5b7f1f2a20050000000000000000000000000000000000000000000000000000000060005260046000fd5b60003560e01c806306ec16f81461014c5763fbfa77cf0361000e57346101475760007ffffffffffffffffffffffffffffffffffffffffffffffffffffffffffffffffc3601126101475760206101296102db565b73ffffffffffffffffffffffffffffffffffffffff60405191168152f35b600080fd5b346101475760207ffffffffffffffffffffffffffffffffffffffffffffffffffffffffffffffffc3601126101475760043573ffffffffffffffffffffffffffffffffffffffff8116808203610147576101f657504780156100ab57600080808093817f585fb2e91ab2ff6f2d3a7377e4ec52a02413c430a7df78e2be5cd94152b0cfb96020604051848152a273ffffffffffffffffffffffffffffffffffffffff61006e6102db565b6101ff906103f3565b005b90601f7fffffffffffffffffffffffffffffffffffffffffffffffffffffffffffffffe0910116810190811067ffffffffffffffff82111761024257604052565b7f4e487b7100000000000000000000000000000000000000000000000000000000600052604160045260246000fd5b67ffffffffffffffff811161024257601f017fffffffffffffffffffffffffffffffffffffffffffffffffffffffffffffffe01660200190565b3d156102d6573d906102bc82610271565b916102ca6040519384610201565b82523d6000602084013e565b606090565b303b7fffffffffffffffffffffffffffffffffffffffffffffffffffffffffffffffd381019081116103c457601461032b61031583610271565b926103236040519485610201565b808452610271565b917fffffffffffffffffffffffffffffffffffffffffffffffffffffffffffffffe06020820193013684378051602d84303c510361039a575160601c90811561037057565b7fc68fcf820000000000000000000000000000000000000000000000000000000060005260046000fd5b7f53e347a80000000000000000000000000000000000000000000000000000000060005260046000fd5b7f4e487b7100000000000000000000000000000000000000000000000000000000600052601160045260246000fd5b6040517f70a0823100000000000000000000000000000000000000000000000000000000815230600482015273ffffffffffffffffffffffffffffffffffffffff821691602082602481865afa9182156105a2576000926105b3575b5081156105ae57600080916104626102db565b8260405173ffffffffffffffffffffffffffffffffffffffff60208201937fa9059cbb000000000000000000000000000000000000000000000000000000008552166024820152866044820152604481526104be606482610201565b51925af16104ca6102ab565b5015610546576040517f70a08231000000000000000000000000000000000000000000000000000000008152306004820152602081602481865afa9081156105a257600091610570575b506105465760207f585fb2e91ab2ff6f2d3a7377e4ec52a02413c430a7df78e2be5cd94152b0cfb991604051908152a2565b7ff27f64e40000000000000000000000000000000000000000000000000000000060005260046000fd5b90506020813d60201161059a575b8161058b60209383610201565b81010312610147575138610514565b3d915061057e565b6040513d6000823e3d90fd5b505050565b90916020823d6020116105e2575b816105ce60209383610201565b810103126105df575051903861044f565b80fd5b3d91506105c156","linkReferences":{}},"methodIdentifiers":{"collect(address)":"06ec16f8","vault()":"fbfa77cf"},"id":24}